{"abi":[{"type":"constructor","inputs":[{"name":"_usdc","type":"address","internalType":"address"}],"stateMutability":"nonpayable"},{"type":"function","name":"payFees","inputs":[{"name":"schoolAddress","type":"address","internalType":"address"},{"name":"amount","type":"uint256","internalType":"uint256"}],"outputs":[],"stateMutability":"nonpayable"},{"type":"function","name":"usdc","inputs":[],"outputs":[{"name":"","type":"address","internalType":"contract IERC20"}],"stateMutability":"view"},{"type":"event","name":"FeePaid","inputs":[{"name":"student","type":"address","indexed":true,"internalType":"address"},{"name":"school","type":"address","indexed":true,"internalType":"address"},{"name":"amount","type":"uint256","indexed":false,"internalType":"uint256"}],"anonymous":false},{"type":"error","name":"ReentrancyGuardReentrantCall","inputs":[]}],"bytecode":{"object":"0x60a060405234801561000f575f5ffd5b506040516108793803806108798339818101604052810190610031919061013e565b60015f819055505f73ffffffffffffffffffffffffffffffffffffffff168173ffffffffffffffffffffffffffffffffffffffff16036100a6576040517f08c379a000000000000000000000000000000000000000000000000000000000815260040161009d906101c3565b60405180910390fd5b8073ffffffffffffffffffffffffffffffffffffffff1660808173ffffffffffffffffffffffffffffffffffffffff1681525050506101e1565b5f5ffd5b5f73ffffffffffffffffffffffffffffffffffffffff82169050919050565b5f61010d826100e4565b9050919050565b61011d81610103565b8114610127575f5ffd5b50565b5f8151905061013881610114565b92915050565b5f60208284031215610153576101526100e0565b5b5f6101608482850161012a565b91505092915050565b5f82825260208201905092915050565b7f496e76616c6964205553444320616464726573730000000000000000000000005f82015250565b5f6101ad601483610169565b91506101b882610179565b602082019050919050565b5f6020820190508181035f8301526101da816101a1565b9050919050565b60805161067a6101ff5f395f818160740152610151015261067a5ff3fe608060405234801561000f575f5ffd5b5060043610610034575f3560e01c80633e413bee14610038578063de974ba414610056575b5f5ffd5b610040610072565b60405161004d9190610367565b60405180910390f35b610070600480360381019061006b91906103f2565b610096565b005b7f000000000000000000000000000000000000000000000000000000000000000081565b61009e6102a0565b5f73ffffffffffffffffffffffffffffffffffffffff168273ffffffffffffffffffffffffffffffffffffffff160361010c576040517f08c379a00000000000000000000000000000000000000000000000000000000081526004016101039061048a565b60405180910390fd5b5f811161014e576040517f08c379a0000000000000000000000000000000000000000000000000000000008152600401610145906104f2565b60405180910390fd5b5f7f000000000000000000000000000000000000000000000000000000000000000073ffffffffffffffffffffffffffffffffffffffff166323b872dd3385856040518463ffffffff1660e01b81526004016101ac9392919061052e565b6020604051808303815f875af11580156101c8573d5f5f3e3d5ffd5b505050506040513d601f19601f820116820180604052508101906101ec9190610598565b90508061022e576040517f08c379a00000000000000000000000000000000000000000000000000000000081526004016102259061060d565b60405180910390fd5b8273ffffffffffffffffffffffffffffffffffffffff163373ffffffffffffffffffffffffffffffffffffffff167fbf6afbaffb3b955bebbf43430bbf8eecb8d34ff86f293f592203ab5ed79c52688460405161028b919061062b565b60405180910390a35061029c6102e4565b5050565b60025f54036102db576040517f3ee5aeb500000000000000000000000000000000000000000000000000000000815260040160405180910390fd5b60025f81905550565b60015f81905550565b5f73ffffffffffffffffffffffffffffffffffffffff82169050919050565b5f819050919050565b5f61032f61032a610325846102ed565b61030c565b6102ed565b9050919050565b5f61034082610315565b9050919050565b5f61035182610336565b9050919050565b61036181610347565b82525050565b5f60208201905061037a5f830184610358565b92915050565b5f5ffd5b5f61038e826102ed565b9050919050565b61039e81610384565b81146103a8575f5ffd5b50565b5f813590506103b981610395565b92915050565b5f819050919050565b6103d1816103bf565b81146103db575f5ffd5b50565b5f813590506103ec816103c8565b92915050565b5f5f6040838503121561040857610407610380565b5b5f610415858286016103ab565b9250506020610426858286016103de565b9150509250929050565b5f82825260208201905092915050565b7f496e76616c6964207363686f6f6c2061646472657373000000000000000000005f82015250565b5f610474601683610430565b915061047f82610440565b602082019050919050565b5f6020820190508181035f8301526104a181610468565b9050919050565b7f416d6f756e74206d7573742062652067726561746572207468616e20300000005f82015250565b5f6104dc601d83610430565b91506104e7826104a8565b602082019050919050565b5f6020820190508181035f830152610509816104d0565b9050919050565b61051981610384565b82525050565b610528816103bf565b82525050565b5f6060820190506105415f830186610510565b61054e6020830185610510565b61055b604083018461051f565b949350505050565b5f8115159050919050565b61057781610563565b8114610581575f5ffd5b50565b5f815190506105928161056e565b92915050565b5f602082840312156105ad576105ac610380565b5b5f6105ba84828501610584565b91505092915050565b7f55534443207061796d656e74206661696c6564000000000000000000000000005f82015250565b5f6105f7601383610430565b9150610602826105c3565b602082019050919050565b5f6020820190508181035f830152610624816105eb565b9050919050565b5f60208201905061063e5f83018461051f565b9291505056fea2646970667358221220e968d6cc06223d5f323dd4834a24be6d021a9b5bc8fae01fc467c281c927288664736f6c634300081c0033","linkReferences":{}},"methodIdentifiers":{"payFees(address,uint256)":"de974ba4","usdc()":"3e413bee"},"id":23}